:1020000000800020858200006D8200006D8200004B
:1020100000000000000000000000000000000000C0
:102020000000000000000000000000006D820000C1
:1020300000000000000000006D820000D982000056
:102040006D8200006D8200006D82000089500000EA
:10205000C57A00006D8200006D8200007182000070
:102060006D820000BD5A00006D8200006D8200008C
:102070000D4F00006D820000CD5A00006D820000FF
:102080006D8200006D8200006D8200006D82000094
:10209000000000006D8200006D82000055500000BD
:1020A0006D8200006D8200006D8200006D82000074
:1020B0000000000010B5064C2378002B07D1054B1B
:1020C000002B02D0044800E000BF0123237010BDA4
:1020D00060020020000000003CF80000044B10B536
:1020E000002B03D00349044800E000BF10BDC046E8
:1020F00000000000640200203CF80000704700234C
:10210000037402330375704710B50400064907488D
:1021100005F0C0FDA079012106F09EFCE0790021C8
:1021200006F09AFC10BDC04678EB00003006002097
:1021300010B504000649074805F0ACFDA079002160
:1021400006F08AFCE079012106F086FC10BDC0464D
:1021500083EB00003006002070B5040006F0CAF8DA
:10216000050006F0C7F8401B092804D905490648B0
:1021700005F090FD70BDA07806F09AFC0028F0D123
:10218000F8E7C0468EEB000030060020F0B50027CF
:1021900085B00D00060000920193FFF7DDFF02AB52
:1021A0001F710123184C02AA5371039A174920008A
:1021B00002F054FC3900307806F04EFC1921200062
:1021C00002F030FB290A200002F02CFBE9B22000CB
:1021D00002F028FBFF21200002F024FB009D019B60
:1021E000EF18BD4206D0FF21200002F01BFB287033
:1021F0000135F6E73078012106F02EFC200002F0D0
:1022000083FB05B0F0BDC0467C02002040420F00B9
:1022100013B56B46DC1D22000123FFF7B7FF2078C2
:1022200016BD0000F0B5002485B00E000700009236
:102230000193FFF791FF02AB1C710123154D02AA18
:102240005371039A1449280002F008FC38782100E1
:1022500006F002FC1821280002F0E4FA310A2800F6
:1022600002F0E0FAF1B2280002F0DCFA019B9C4295
:1022700007DA009B2800195D013402F0D3FAE4B2BA
:10228000F4E73878012106F0E7FB280002F03CFB78
:1022900005B0F0BD7C02002040420F0007B51300DE
:1022A0006A46073213700123FFF7BCFF07BD000029
:1022B000F0B5002485B005000F0000920193FFF7F0
:1022C0004BFF02AB1C710123144E02AA5371144937
:1022D000039A300002F0C2FB2878210006F0BCFB14
:1022E0003900300002F09EFA019B9C4207DA009B05
:1022F0003000195D013402F095FAE4B2F4E7287871
:10230000012106F0A9FB300002F0FEFA842F02D072
:102310002800FFF721FF05B0F0BDC0467C02002079
:1023200040420F00F0B5002485B006000F00009277
:102330000193FFF711FF02AB1C710123144D02AA98
:102340005371039A1349280002F088FB307821006A
:1023500006F082FB3900280002F064FAFF21280011
:1023600002F060FA019B9C4209DA009BFF212800E1
:102370001F1902F057FA01343870E4B2F2E73078EE
:10238000012106F069FB280002F0BEFA05B0F0BD9D
:102390007C02002040420F0010B5437804007F2BE0
:1023A00010D8142005F0DCFF0021607806F054FB03
:1023B000322005F0D5FF6078012106F04DFB142096
:1023C00005F0CEFF10BD0000F7B50E4D040029004A
:1023D000FFF71EFF471C0600FAB229002000FFF796
:1023E0005DFF29002000FFF713FF32000190290054
:1023F0002000FFF753FF019BFF1A78427841C0B2DB
:10240000FEBDC04608090000F0B500250E000221FF
:1024100087B0009201930CAB5D570DAB1B780400A5
:102420005BB202930EAB1B7808005BB203930FAB59
:102430001B785BB2049310AB1B785BB2059311ABB6
:102440001F7806F04DFB0321042006F049FB022112
:10245000052006F045FB6B461B78E57063706B4604
:102460001B79EDB2A3706B461B7AA57423716B4682
:102470001B7BE57463716B461B7CF0B2A3716B46EA
:102480001B7D0121E3712670677406F0E5FA207860
:10249000012106F095FA2078012106F0DDFA607836
:1024A000012106F08DFA6078002106F0D5FAA078B7
:1024B000002106F085FA4F4D4F49280005F0EAFB50
:1024C0004E49280005F0E6FB4D49280005F0C5FB04
:1024D00000210A226156280005F037FC49492800EE
:1024E00005F0BBFB01210A226156280005F02DFCF6
:1024F0004549280005F0B1FB02210A226156280057
:1025000005F023FC4149280005F0A7FB03210A221E
:102510006156280005F019FC3D49280005F09DFB97
:1025200004210A226156280005F00FFC39492800D1
:1025300005F093FB05210A226156280005F005FCF1
:102540003549280005F089FB06210A22615628003A
:1025500005F0FBFB3149280005F07FFB07210A222B
:102560006156280005F0F1FB03202056002803DB0C
:10257000C0B2002106F024FA04202056002803DB14
:10258000C0B2002106F01CFA05202056002803DB0B
:10259000C0B2002106F014FAA3797F2B24D8E37986
:1025A0007F2B21D81E49280005F074FBA07901215A
:1025B00006F006FAE079012106F002FA01232374FD
:1025C0002000FFF7E9FE1749280005F063FB200013
:1025D000FFF7FAFE1449041E00D11449280005F043
:1025E00059FB200007B0F0BD1149280005F052FB4F
:1025F0000023E4E730060020B9EA0000C3EA000047
:10260000F2EA0000F7EA0000FFEA000007EB000032
:102610000DEB000013EB000019EB000020EB0000B5
:1026200027EB000068EB000028EC0000BBEC00008A
:1026300047EB0000F7B504000E000027FFF78CFD04
:102640006B4601220E4D1F715A71019A28000D49E7
:1026500002F004FA3900207806F0FEF92800802103
:1026600002F0E0F83100280002F0DCF820780121C7
:1026700006F0F2F9280002F047F9E673F7BDC0460C
:102680007C02002040420F0007B56B46DA1D117036
:10269000417501239621FFF70BFE07BD07B56B4679
:1026A000DA1D1170817501238A21FFF701FE07BD34
:1026B00013B50400C2618161501808F06BFF094A2C
:1026C000094B07F017FD06F0A1FC01AA030C1370DB
:1026D000030A53709070032386212000FFF7E8FD62
:1026E00013BDC046CFF753E3A5CB684013B501AC8B
:1026F00021706270022322008F21FFF7D9FD13BDE4
:1027000037B50C000500411CCC77811CCA77C11C71
:10271000CB7701A94A708B700A000C7003238B21C0
:10272000FFF7C6FD012210492800FFF7B7FD802CF6
:1027300018D00BD8602C03D0702C13D0502C0AD199
:102740001E220A492800FFF7A9FD04E0A02C07D0AB
:1027500002D8902C04D037BDB02C01D0C02CFAD1B7
:102760003222EEE73722ECE73C09000025090000A1
:10277000F0B585B000926A4601931278031DD977AF
:10278000431DDA776A460AAC12792778831DDA7717
:10279000C31DDF7708239C46844463460BAC267830
:1027A0000CACDE7728239C468444634625786A4631
:1027B0001D7029239C46844463460DAC247812780E
:1027C0001C7002AB5A706A46127919709A70DF70E9
:1027D0001E715D719C7102AA07238C21FFF768FDB1
:1027E00005B0F0BD73B5061DF17706AC461D257822
:1027F000F27707AC861DF3772478C61DF57701368E
:10280000F4776E4631707270B3706A4605238C217E
:10281000F5703471FFF74CFD73BD73B56E4606ACB1
:1028200024880D127170F270737141858285C385A1
:1028300011121A122312B1703271B37104866A46F2
:1028400008238D213570F471FFF732FD73BD000050
:1028500070B5074D04002900FFF7DAFC4022524210
:1028600002432900D2B22000FFF718FD70BDC04618
:102870009108000010B5437C05490648202B03D081
:102880000549212B00D0054905F0E7F910BDC046E8
:10289000F4E6000030060020FBE6000002E700003E
:1028A00070B5837D0500012B46D12549FFF7B0FCAB
:1028B000244904002800FFF7ABFC23490600280048
:1028C000FFF7A6FCAB7D022B0DD11D492800FFF7B9
:1028D0009FFC1C4904002800FFF79AFC1A490600D7
:1028E0002800FFF795FCAB7D032B0DD1174928007D
:1028F000FFF78EFC164904002800FFF789FC1549F4
:1029000006002800FFF784FC2402A41924022018E2
:1029100007F094F808F070FE0F4A104B07F0F4FF30
:1029200000220F4B07F0E6FB08F0B8FE0D4906F059
:1029300025FD06F053FB70BD002006000400C1E732
:10294000060900000709000008090000A3090000AB
:10295000A4090000A5090000CFF753E3A5CB684008
:1029600080842E410024744918290CD003D80A29E8
:102970000BD0002006E0262903D03429F9D10448E1
:1029800000E0044870470448FCE70448FAE7C04602
:1029900075190300EA320600D4650C00A8CB1800B4
:1029A00070B50500FFF766FF4C4C4D49200005F05F
:1029B00054F9A87D4B49042805D806F047F903547B
:1029C00056585A004849200005F047F94749200069
:1029D00005F043F92800FFF763FF0A2201002000F9
:1029E00005F0BDF94249200005F037F9AB7D013B08
:1029F000012B23D83F49200005F02FF96B1CD97F0C
:102A00000A220909200005F0B6F93B49200005F02B
:102A100024F9AB1CD97F2800FFF7A6FF0A2201008A
:102A2000200005F09CF93549200005F016F9EB1C53
:102A3000D97F0A220431200005F083F9AB7D032BF6
:102A40004BD12F49200005F008F96B1CDB7F2D4985
:102A5000862B19D00FD82C49452B15D02B49692B23
:102A600012D0204910E02A49ADE72A49ABE72A49AC
:102A7000A9E72A49A7E72A49C72B05D02949EB2B03
:102A800002D0AA2BEDD12849200005F0E6F827490D
:102A9000200005F0E2F8AB1CDB7F2549022B06D0B5
:102AA0002449042B03D02449002B00D00D492000D9
:102AB00005F0D3F803352149200005F0CEF8EB7F6F
:102AC0001F49102B06D01F49202B03D01E49002B75
:102AD00000D00449200005F0C0F870BD3006002089
:102AE000C0E80000E2E90000CEE800002EED0000A2
:102AF000E9E80000ECE80000F0E80000F4E800007D
:102B0000FAE8000037E900000DE9000022E90000C2
:102B1000D3E80000D8E80000E0E80000E5E80000A5
:102B200061E9000076E900004CE900008BE9000053
:102B30009FE90000A6E9000098E90000ADE9000067
:102B4000E2EC0000BEE90000B2E9000010B5034964
:102B5000FFF75EFBC023184010BDC046910800007F
:102B600070B50500FFF786FE794C7A49200005F024
:102B700074F8A87D7849042805D806F067F803D5CD
:102B8000D7D9DB007549200005F067F8AB7D013B24
:102B9000012B4ED87249200005F05FF82B1DD97F1C
:102BA0000A22200005F0E7F86B1DDB7F6D49002B42
:102BB00003D06D49802B00D06C49200005F04DF802
:102BC0006B49200005F049F8AB1DD97F0A2220008F
:102BD00005F0D1F86749200005F03FF8EB1DDB7FD9
:102BE0006549002B03D06549202B00D05A492000AD
:102BF00005F033F86249200005F02FF82B00083368
:102C0000DB7F6049002B03D05F49402B00D0524945
:102C1000200005F022F85D49200005F01EF828008C
:102C2000FFF794FF5A49C02800D05A49200005F008
:102C300014F8AB7D032B76D14949200005F00DF83F
:102C40002B1DD97F0A22091101318900200005F0CE
:102C500078F85149200005F000F85049200004F0B0
:102C6000FCFF6B1DD97F0A22200005F084F84C4937
:102C7000200004F0F2FFAB1DDB7F4A49402B09D056
:102C80005AD84949202B05D04849302B02D0102B67
:102C90005CD14749200004F0E0FFEB1DDB7F454994
:102CA000002B03D04449202B00D02B49200004F0F6
:102CB000D4FF4249200004F0D0FF2B000833D97F15
:102CC0000A22200005F057F82A49200004F0C5FF29
:102CD0002B00283319780A220911200005F031F859
:102CE0003749200004F0B9FF3649200004F0B5FF51
:102CF0002B0029331B782149002B03D01E49082BB8
:102D000000D01549200004F0A8FF2049200004F05D
:102D1000A4FF2800FFF71AFF1D49C02800D01D4955
:102D2000200004F09AFF70BD27492CE727492AE7C5
:102D3000274928E7274926E72749602BAAD02749B2
:102D4000702BA7D0502B01D12549A3E70249A1E759
:102D500030060020C0E80000E2E90000CEE80000F4
:102D6000C2E90000CDE90000D7E90000E1E9000078
:102D7000EAE90000F5E90000FEE90000FBE90000D7
:102D800002EA000007EA000010EA000017EA00006B
:102D900021EA000031EA00003CEA000042EA0000BB
:102DA00053EA0000BFED00009DE900009BE9000030
:102DB000E2EC000083EA00006DEA000096EA000001
:102DC000A6EA0000ADEA0000D3E80000D8E8000061
:102DD000E0E80000E5E8000069EA000067EA0000BA
:102DE00063EA0000F7B51D4C07000D0020001C49E8
:102DF000019204F032FF200004F044FF019B9D4249
:102E00002AD81849200004F028FF102229002000A9
:102E100004F097FF1449200004F01FFF2B0010332B
:102E20009BB2009329003800FFF7F2F906000F2843
:102E300003D80E49200004F010FF102231002000BA
:102E400004F07FFF0A49200004F007FF0135009BD2
:102E5000ADB29D42E6D1CEE7F7BDC04630060020B8
:102E600084E80000BAE80000BDE800001AED0000A8
:102E7000BEE80000030013B5323301AC1970123103
:102E800021706270022322008E21FFF711FA13BD18
:102E900007B50B1201AA1370517002239721FFF797
:102EA00007FA07BD37B5037C04000D00002B01D0E5
:102EB000FFF73EF920000749FFF7EAFF237D01AA4B
:102EC00013702B0A53708321032320009570FFF7A2
:102ED000EFF937BDFFFF000013B501AC022322005C
:102EE0001521FFF71FFA237860781B02C01880B203
:102EF00016BD000010B5FFF7EFFF0400C30703D5B0
:102F00002F49304804F0A9FEA30703D52E492D48C8
:102F100004F0A3FE630703D52C492A4804F09DFE64
:102F2000230703D52A49274804F097FEE30603D573
:102F30002849244804F091FEA30603D526492148D8
:102F400004F08BFE630603D524491E4804F085FE79
:102F5000230603D522491B4804F07FFEE30503D571
:102F60002049184804F079FEA30503D51E491548E9
:102F700004F073FE630503D51C49124804F06DFE8E
:102F8000230503D51A490F4804F067FEE30403D56F
:102F900018490C4804F061FEA30403D516490948FA
:102FA00004F05BFE630403D51449064804F055FEA3
:102FB000230403D51249034804F04FFE10BDC04658
:102FC00011E70000300600201EE700002BE700009C
:102FD0003FE7000053E7000065E7000077E70000E7
:102FE00086E70000A7E70000CCE70000EDE700005F
:102FF00010E8000031E800003FE800005AE8000057
:103000006DE80000F0B5180000240C4F944213D274
:1030100008250B5D1B02584003B29C4666464300E0
:1030200098B2002E01DA7B4098B2013DEDB2002D3E
:10303000F2D10134A4B2E9E7F0BDC046211000008E
:1030400037B5037C04000D00002B01D0FFF75CF8BE
:1030500020000749FFF71CFF237D01AA13702B0AEC
:1030600053708221032320009570FFF721F937BDAB
:10307000FFFF0000F0B504000126002785B0019194
:103080000021FFF7D7FA2000FFF766F802AB174DD3
:103090001F715E71039A2800154901F0DFFC20784A
:1030A000390005F0D9FCD521280001F0BBFB310027
:1030B000207805F0D1FC2000FFF74EF82078390089
:1030C00005F0CAFC8421280001F0ACFB019928001E
:1030D00001F0A8FB3100207805F0BEFC280001F0CB
:1030E00013FC300005F03CF905B0F0BD7C02002077
:1030F00040420F00F0B587B003AD019102231600E6
:1031000017212A000400FFF70DF92B78B34231D8BC
:1031100023726D78237A2000EB18DBB2002700932E
:10312000FFF71AF8012204AB184E1F715A71059A65
:103130001749300001F092FC3900207805F08CFC32
:103140001B21300001F06EFB2900300001F06AFB0A
:10315000FF21300001F066FB019B5F19009B9D423F
:103160000AD20021300001F05DFB01353870EDB26C
:103170000137F3E72672CCE72078012105F06CFCDB
:10318000300001F0C1FB207A07B0F0BD7C020020C6
:1031900040420F0030B5837D85B004000D00012B47
:1031A0000CD1431DDA7F031DD97F0433DB7F0193EC
:1031B000C31DDB7F00932B00FFF714FBA37D032BC4
:1031C00014D1200029300078A31D621D211DDB7F52
:1031D000D27FC97F039020002830007801950290AB
:1031E000E01DC07F00902000FFF7C2FA05B030BD9F
:1031F000F0B589B003930EAB1B7804005BB2049367
:103200000FAB1B780291171E059302D1002009B065
:10321000F0BD0021FFF70EFA2000FEF79DFF00250C
:10322000012206AB274E1D715A71079A26493000BC
:1032300001F014FC2900207805F00EFC1A21300062
:1032400001F0F0FA2900300001F0ECFA029DEB19D0
:103250000293029B9D4205D029781A4801F0E2FAB8
:103260000135F6E70121207805F0F6FB300001F08A
:103270004BFB390020002773FFF78CFF00220499D5
:103280002000FFF7F7FD0023104A009310492000AB
:10329000FFF7C3FA03992000FFF704FE059B002BFC
:1032A00001D1207BB3E7A07C05F002FC0028FAD016
:1032B00020000021FFF7BEF92000FFF70DFE4304B8
:1032C000EFD5A3E77C02002040420F000140000040
:1032D000FFFF000010B5040005F08CF8200010BDC1
:1032E0001FB50023084C029301330193013300936F
:1032F000042203330549200001F01AFB044A054962
:10330000200005F09BFC1FBD7C020020C80A0020A5
:1033100000000020FD20000010B500210C2005F069
:103320009BFB01210C2005F04BFB0021032005F045
:1033300093FB0121032005F043FB0021092005F048
:103340008BFB0121092005F03BFB00210E2005F03D
:1033500037FB0021032005F049FA10BD10B501210B
:103360000C2005F079FBFF21032005F03FFA012135
:103370000D2005F071FBFF210B2005F037FA10BD81
:1033800010B500210C2005F067FBFF21032005F09C
:103390002DFA00210D2005F05FFBFF210B2005F029
:1033A00025FA10BD10B500210C2005F055FB0021B9
:1033B000032005F01BFA00210D2005F04DFB002134
:1033C0000B2005F013FA10BD0122014B1A70704753
:1033D0001003002070B5114C06000D0020001049AC
:1033E00004F046FC0F49052E02D80F4BB600F158E9
:1033F000200004F03DFC0D49200004F039FC09498F
:10340000052D02D8084BAD00E958200004F030FC2F
:103410000749200004F02CFC70BDC0463006002097
:10342000E6EC0000E4EC0000A8EB0000F4EC000087
:10343000FBEC0000F7B50E2005F06AF91E4D040004
:10344000286869681D4A1E4B07F05EFA0600A0B2A4
:103450000F0008F09FF81B4A1B4B07F055FA0200BB
:103460000B003000390006F029FB0022286069605B
:10347000164B07F049FA02000B0006F01FFB144D33
:10348000144C286069601449200004F0F1FB022309
:1034900000932A686B68200004F02AFD2868696898
:1034A00080230022DB05012405F084FD002800D1E3
:1034B000041CE0B2FEBDC04618030020AC1C5A64D8
:1034C0003BDFEF3FFCA9F1D24D62703F0000303F7F
:1034D0000803002030060020BEE8000010B50121DE
:1034E0000F2005F06DFA04230D4A01210D4801F06B
:1034F00081FD0D4C0D49200004F0AFFB200004F0CD
:10350000C1FB2000642104F00EFD094A0021094896
:1035100000F0C6FE0023084A1372084A137210BD59
:10352000C93300002006002030060020FDEC00001A
:10353000D5330000A4020020F0020020E4020020A5
:103540000022034B1A755A759A75DA751A837047FB
:10355000B002002070B5836888B00600002B59D0F7
:10356000B64904F009FE041E06D00121062005F02C
:1035700073FAB349B3484EE2B349300004F0FCFD9E
:10358000002805D02100062005F066FAAF49F1E7D2
:10359000AF49300004F0F0FD041E3DD0132005F0CB
:1035A000B7F806F001FAEA21890505F0E7FE08F010
:1035B00023F8A84AA84B07F0A7F90022A74B07F069
:1035C000A3F90022A64B06F095FDA64BA64A06F0ED
:1035D00075FA04000D0005A8A44904F00AFD2900AD
:1035E000200008F05BF80222011C02A804F06FFD25
:1035F00002A905A804F0B3FD0100300004F03AFD73
:1036000002A804F0A7FC05A804F0A4FC31008D4832
:1036100004F027FB08B070BD954905A804F0E9FC4B
:1036200005A9300004F0D2FD050005A804F092FCC5
:10363000002D00D16EE108222100300004F0E7FDEA
:103640008C4D02A8290004F0D4FC02A9300004F03B
:10365000BDFD00280DD0884905A804F0CAFC05A9C5
:10366000300004F0BFFD441EA041C4B205A804F020
:1036700071FC02A804F06EFC0121002C1DD1290070
:1036800002A804F0B6FC02A9300004F09FFD002857
:103690000DD07A4905A804F0ACFC05A9300004F06F
:1036A000A1FD441EA041C4B205A804F053FC02A829
:1036B00004F050FC002C04D00021112005F0CCF9BE
:1036C000A8E76F4D02A8290004F093FC02A930007E
:1036D00004F07CFD00280DD0674905A804F089FCA2
:1036E00005A9300004F07EFD441EA041C4B205A827
:1036F00004F030FC02A804F02DFC0121002C1DD1A7
:10370000290002A804F075FC02A9300004F05EFD57
:1037100000280DD0594905A804F06BFC05A930001C
:1037200004F060FD441EA041C4B205A804F012FCE0
:1037300002A804F00FFC002C02D000211220BDE7EB
:10374000504D02A8290004F054FC02A9300004F0F6
:103750003DFD00280DD0484905A804F04AFC05A904
:10376000300004F03FFD441EA041C4B205A804F09F
:10377000F1FB02A804F0EEFB0121002C1DD1290071
:1037800002A804F036FC02A9300004F01FFD002856
:103790000DD03A4905A804F02CFC05A9300004F02E
:1037A00021FD441EA041C4B205A804F0D3FB02A829
:1037B00004F0D0FB002C02D0002110207EE7324D17
:1037C00002A8290004F015FC02A9300004F0FEFC58
:1037D00000280DD0284905A804F00BFC05A93000ED
:1037E00004F000FD441EA041C4B205A804F0B2FBE1
:1037F00002A804F0AFFB0121002C1DD1290002A872
:1038000004F0F7FB02A9300004F0E0FC00280DD022
:103810001A4905A804F0EDFB05A9300004F0E2FC0C
:10382000441EA041C4B205A804F094FB02A804F011
:1038300091FB002C2AD0002109203FE7C0EB0000BB
:10384000C7EB000030060020D2EB0000DAEB0000EE
:10385000E6EB00006666666666660A4000804540E4
:103860000000244051B8BE3FB81E85EBEFEB0000CE
:10387000F6EB0000FFEB0000C4EB0000D6EB00000D
:1038800004EC000008EC00000EEC0000BF4D02A8A4
:10389000290004F0AEFB02A9300004F097FC0028D8
:1038A0000DD0BB4905A804F0A4FB05A9300004F025
:1038B00099FC441EA041C4B205A804F04BFB02A829
:1038C00004F048FB0121002C22D1290002A804F0B9
:1038D00090FB02A9300004F079FC00280DD0AD491E
:1038E00005A804F086FB05A9300004F07BFC441E0B
:1038F000A041C4B205A804F02DFB02A804F02AFBE5
:10390000002C00D186E601210F2005F059F8002196
:103910000F20D3E6A04905A804F06BFB05A93000F1
:1039200004F054FC040005A804F014FB002C00D1A2
:10393000D9E09A4905A804F05CFB05A9300004F021
:1039400051FC040005A804F005FB002C0ED0944C9B
:10395000200001F011F919212200924801F036FEF1
:103960009149002800D105E6904903E6904905A851
:1039700004F03FFB05A9300004F034FC050005A865
:1039800004F0E8FA002D49D0864D280001F0AAFC89
:10399000884C894900283DD08849200004F068F906
:1039A000280001F09CFD07F027FE012602000B0015
:1039B0000096200004F09CFA8149200004F058F998
:1039C000280001F09AFD07F017FE009602000B0098
:1039D000200004F08DFA7B49200004F049F928000A
:1039E00001F099FD07F008FE009602000B00200090
:1039F00004F07EFA7449200004F03AF9280001F03E
:103A0000BAFD07F0F9FD009602000B00200004F05B
:103A10006FFA6E49200004F02BF9FBE56C4905A80C
:103A200004F0E7FA05A9300004F0DCFB040005A867
:103A300004F090FA002C36D00221280004F0C0FFD8
:103A4000584C2900200001F0A4FD2900200001F0BD
:103A500037FE2900200001F0E7FD0121200001F0E0
:103A6000F8FD1F21200001F0D7FD0921200001F001
:103A7000D7FD2900200001F009FE200001F0FDFD26
:103A8000002803D00A2004F06BFCF6E70721200091
:103A900001F07FFD0121200001F012FE4D49454853
:103AA00004F002F9B6E54C4905A804F0A2FA05A90C
:103AB000300004F097FB040005A804F04BFA002C3A
:103AC00000D1A7E5002004F0F3FF002803D143490B
:103AD000384804F0E9F8334801F0CFFD002800D160
:103AE00098E53F49DBE73F4905A804F082FA05A9BC
:103AF000300004F06BFB050005A804F02BFA002D44
:103B000018D0264905A804F074FA05A9300004F07D
:103B100069FB050005A804F01DFA002D00D179E528
:103B2000200000F01FFD00F009FC2F49002800D103
:103B300020E519E72D4905A804F05BFA05A9300036
:103B400004F044FB040005A804F004FA002C0BD098
:103B5000184C2749200004F08BF86421C822052066
:103B600000F030FB234955E7234905A804F041FA4A
:103B700005A9300004F02AFB040005A804F0EAF9C6
:103B8000002C00D146E51D49F4E4C04614EC0000C9
:103B9000C4EB0000D6EB00001BEC000022EC0000A0
:103BA000E4030020B00200202BEC000027EC000012
:103BB00032EC00003006002052EC000037EC000030
:103BC00043EC000048EC00004DEC0000E3E800008E
:103BD0006AEC000071EC00008AEC000091EC00003F
:103BE000A7EC0000B5EC0000BAEC0000C1EC00004E
:103BF000C6EC0000D6EC0000DBEC0000DEEC0000C0
:103C0000F0B5AA4D87B0280003F09EFC002824D010
:103C10000127A74EA74C33683B4209D1A649200093
:103C200004F0E7F9A54AA6492000376005F006F838
:103C3000290003A804F07AF903A9200004F034FA5B
:103C400003A804F087F9210003A804F023FA03A8CD
:103C5000FFF780FC03A804F07DF99A4C200000F0E7
:103C60002CFB60780138042806D804F0F9FF0E0018
:103C700039007F00D5000A0100F060FB0123002815
:103C800000D00223A37007B0F0BD200000F02AFB93
:103C900000280ED0C8220120110000F093FA8A48B3
:103CA00000F080F900F050FB8849894800F0C0FA24
:103CB000E9E700F095FB002803D0302000F038FD44
:103CC000E1E7834800F0D6FA0028DCD000F056FA8D
:103CD00000F056F900F094FB7E4801F087F9D2E736
:103CE000200000F0FFFA7C4D002819D000F046FAC1
:103CF00000F046F9C821280000F0A4FAFA2174481F
:103D0000090100F095FAFFF729FB00F01DFB0C20DC
:103D100004F0A6FC00200021704B18605960B2E747
:103D2000280000F0B9FA00280BD0200000F0E1FADA
:103D3000002806D0FA22C8219200022000F042FAA0
:103D4000A1E7634800F096FA00280AD1FFF772FB5A
:103D5000002806D100F044FB002800D193E7312071
:103D6000ACE70323A370FFF71DFB8CE7200000F0F6
:103D7000B9FA594D00280ED000F000FA00F000F911
:103D8000C821280000F05EFA5549514800F050FA69
:103D900000F0DAFA77E7280000F07EFA002812D166
:103DA000504E300000F0EAFA051E1ED1484800F0DF
:103DB00061FA002800D166E700F0E0F900F0E0F8D1
:103DC000494B1D7088E7200000F093FA0028E7D0E7
:103DD000464B04210093C82303201A0000F00AFA7E
:103DE000FA20800000F0DEF84DE733782020102B19
:103DF00000D163E7122B07D1202000F099FC0321AA
:103E0000200000F056FA3EE7112B00D03BE73120AE
:103E100000F08EFC042335E7200000F063FA2E4DFD
:103E200000280FD000F0AAF900F0AAF82800C82155
:103E300000F008FAFA212648090100F0F9F9FFF725
:103E40009FFA62E7280000F027FA002806D12048F0
:103E500000F010FA00280FD0052383E7200000F0BF
:103E600048FA0028F3D0FA22C8219200042000F07A
:103E7000A9F900F091F806E7FFF7DCFA0028EBD18A
:103E800068E7200000F02EFA002809D0032000F097
:103E900087F900F075F8FA20C00000F08BFC77E796
:103EA00000F096FC002800D0EBE653E73006002037
:103EB0009C020020FC02002076F40000000000209C
:103EC000557F0000A4020020B80B000088130000FA
:103ED000F002002020060020E40200201803002049
:103EE000983A0000A00200201003002010270000D4
:103EF000002210B51100044800F0D2F90023034A53
:103F00001372034A138010BD200300202C030020ED
:103F10003803002070B5174C200000F0CEF965780A
:103F20002000012D07D0022D0ED000F0DBF900217A
:103F3000002805D170BD00F0D5F90028FAD029007D
:103F40000F2004F089FDF5E700F0CCF90A4E051EBC
:103F500009D001210F2004F07FFD084B30001988A3
:103F600000F070F9E6E7300000F096F90028E1D0A3
:103F7000A570DFE7200300202C0300203803002079
:103F800010B500210F2004F067FD0022014B9A704C
:103F900010BDC046200300200122014B9A707047DB
:103FA000200300200222024B9A70024B18807047B7
:103FB000200300203803002010B50021122004F057
:103FC0004BFD0021102004F047FD0021112004F0DA
:103FD00043FD10BD10B5052806D804F037FE0306D2
:103FE000131D2325FFF7E8FF10BD0121122004F067
:103FF00033FD0021102004F02FFD0021112004F0DA
:104000002BFDF1E70121122004F026FD00211020F4
:1040100004F022FD0121F1E70021122004F01CFD33
:104020000121E7E70121F8E70021ECE710B50121C4
:10403000122004F0C5FC0121102004F0C1FC012174
:10404000112004F0BDFC00220848110000F028F9FE
:104050000023074A1372074A1370074A1380074A5E
:104060001380074A1380074A137010BD3C030020D9
:10407000480300203B030020560300205403002087
:10408000580300203A03002070B5354C200000F0A2
:1040900014F960780138032803D804F0D7FD0A1416
:1040A0002C4E200000F01EF9002801D0FFF784FFFD
:1040B00070BD200000F016F90028F9D0294B1878BF
:1040C000FFF788FFF4E7200000F00CF9264D0028E8
:1040D00009D0244B1878FFF77DFF244B198828005E
:1040E00000F0B0F8E4E7280000F0D6F80323002839
:1040F000DED0A370DCE7200000F0F4F81A4D0028B1
:1041000003D0FFF759FF1A4BE8E7280000F0C4F886
:104110000028CDD0174A1378FF2B01D10223E8E7FE
:10412000002BC5D0013BDBB21370002BF6D1124B34
:104130001B88002B12D00423DBE7200000F0D2F80C
:10414000094D002805D0074B1878FFF743FF0A4BAD
:10415000C4E7280000F0A0F80028A9D00023C8E791
:104160003C0300203B0300204803002056030020AE
:10417000540300203A030020580300200023054A7E
:1041800010B59370044A1372044A1370FFF714FFBA
:1041900010BDC0463C030020480300203B03002024
:1041A0000122054B10B59A700022044B1A72044B81
:1041B0001870FFF70FFF10BD3C03002048030020DC
:1041C0003B03002010B50224054B9C70054B187072
:1041D000054B1980054B1A80FF22054B1A7010BD44
:1041E0003C0300203B030020560300205403002022
:1041F0003A03002070B50226074D04ACAE70074D9F
:10420000248828700648017006490A80064A1380EF
:10421000064B1C8070BDC0463C0300203B030020C1
:104220003A030020560300205403002058030020C6
:1042300070B504000D0004F05DF801236560206096
:10424000237270BD10B5FFF7F3FF10BD10B5027AF1
:104250000400002A08D004F04DF823686268C31AED
:104260009A4201D800222272227A002A00D1636881
:10427000180010BD70B5047A0500002C08D0FFF7B7
:10428000E5FF6A680023904204D32B72200070BDC2
:104290000124FBE71C00F9E710B5FFF7EBFF10BDA9
:1042A0000123017041708170C3700371437182609A
:1042B00070470123817043717047030010B55A792C
:1042C00040789978002A01D188420AD00122DA7018
:1042D0001A710022187059705A719B68934200D06D
:1042E000984710BDC378002B01D00022C27018007F
:1042F00070470379002B01D000220271180070472B
:10430000FA2010B5C00004F02BF8074800F020FA9E
:10431000002000F027F9FEF7FFFFFFF787FEFFF709
:10432000E7FDFFF7DBF810BD17ED000010B5FFF754
:1043300067FCFFF7A9FEFFF7EDFD10BD014B1878F4
:104340007047C046A803002037B5094D094C290025
:104350002000FEF79DFD002329000093064A20005F
:10436000FEF75BFA29002000FEF76AFE37BDC04663
:10437000FFFF00005C03002022400000F8B500238E
:10438000134D070001202B7004F092FB00281DD074
:10439000104E3000FEF7A0FD0F4904003000FEF77C
:1043A00077FD68231C4211D10C4C03222100300000
:1043B000FEF7A0FE032809D12378C02B06D163782D
:1043C000B02B03D1A3783B7001232B702878F8BD64
:1043D000A10300205C030020FFFF0000A2030020D7
:1043E00013B56B46DC1D2000FFF7C8FF002806D080
:1043F000022320789843103843425841C0B216BD7A
:1044000010B500210148FEF735FE10BD5C03002009
:1044100070B51B4C1B49200003F01FFC1A4D0A22EB
:104420002978200003F0A7FC184B2A78184919486E
:10443000FEF7E8FD05001849200003F00EFC2900F6
:104440001022200003F07DFC1449200003F005FC3D
:10445000134B0A221968134B20001B68C91A03F07A
:104460007EFC1149200003F0F8FB1049200003F006
:10447000F4FB0F4B0A221968200003F070FC70BD9A
:10448000300600201CED0000A0030020FFFF00000C
:10449000040000205C03002029ED000030ED000046
:1044A000AC030020B003002040ED000043ED00000D
:1044B0009C03002070B5104D2800FEF70DFD06008E
:1044C0000E4C0F49200003F0C8FB0E49200003F0FA
:1044D000C4FB0D4B0A221978200003F04CFC0B4959
:1044E000200003F0BAFB31001022200003F029FC69
:1044F0002800FEF7FFFC70BD5C03002030060020A2
:1045000063ED00006FED0000A003002077ED0000D8
:10451000F8B50E4D07000E0028000D4903F0A8FB6A
:104520000024B4420DD0395D1022280003F023FC92
:10453000731EA34203DD2021280003F09DFB0134FC
:10454000EFE728005D2103F097FBF8BD300600205F
:1045500060ED000010B50248FDF7D1FD10BDC0466A
:104560005C030020F0B53E4B87B018703D4800F06A
:104570004DFA20233C4C0593213B04930393029373
:10458000019302330093082206330A212000FDF72D
:104590003BFF364D071E364E5BD03649280003F0F0
:1045A00079FB012333703378002B50D00021200099
:1045B000FEF740F800212000FEF766F801212000F8
:1045C000FEF76CF800222C492000FEF771F800225B
:1045D00020001100FEF78AF8012326227021200016
:1045E000FEF78EF8402300260193203B0093320013
:1045F000DF330C21200003960296FEF7B9F8330052
:104600001E4A1F4920000096FEF707F92000FEF71A
:104610001FF9280003F036FB2000FEF7C1F928003F
:1046200003F030FB2000FEF79BFA280003F02AFB82
:10463000280003F027FB8021124A09012000FEF721
:10464000D1FB280003F01EFB280003F01BFB07B082
:10465000F0BD0D49280003F01DFB3770A3E7C046ED
:10466000A9030020BC0300205C03002030060020CA
:10467000A803002080ED000040BDBB910140000078
:10468000FFFF0000FF08000093ED00000A2273B551
:1046900005000E001E4C1100200003F052FB1D49C6
:1046A000200003F0DAFA1C49200003F0D6FA2000BB
:1046B00002F073FF31002800FFF72AFF01210D20CF
:1046C00004F0CAF903F016FE144B320018600123FF
:1046D0000193093300932900114B1248FEF788FD1E
:1046E000002811D003F006FE0F4B104A1860136823
:1046F00001331360FFF78CFE00210D2004F0ACF9AC
:10470000200003F0BFFA73BDFFF7D4FEF4E7C04604
:104710003006002052ED000057ED0000B0030020ED
:10472000102700005C030020AC0300209C03002045
:10473000B02210B5054B03211A7098701032180082
:104740005A70FFF7A3FFFFF7FFFD10BDA503002080
:1047500070B5124C05001249200002F0EDFEFA205F
:10476000C00000F027F8200003F08CFA0D4920006B
:1047700003F073FA0C49200003F06FFA0B49200094
:1047800003F088FA2900200003F08EFA200003F0DD
:1047900079FA0749200003F07DFA70BD3006002049
:1047A00040420F00ACED0000BEE80000B5ED000097
:1047B000C1ED000010B5040003F09CFD024B186031
:1047C000024B1C6010BDC046B4030020B80300209B
:1047D00010B503F08FFD054B054A1B681268C31A1C
:1047E000002093424041C0B210BDC046B403002037
:1047F000B803002070B506000C008D18AC4207D03D
:10480000336821789B683000984720700134F5E7C1
:1048100070BD704710B50400406801F051FA0023E4
:10482000237610BD10B5406801F06FFA10BDF8B5E1
:10483000050040680C0001F063FA2B68E7B2260A15
:104840009B68012810D139002800FF2798472B6862
:10485000BC4304439B6831002800984703022000B2
:104860003840184380B2F8BD310028009847FF2631
:104870002B680002344004439B68390028009847A5
:10488000B4432043EEE7000010B54B1C0BD01029B9
:1048900009D0EFF3108472B6102905DD02234376A8
:1048A000002C00D162B610BD0123427E1A4342762D
:1048B00018224A430449891816228A569340C2692D
:1048C0001343C361ECE7C04630EF00004B1C17D028
:1048D000102915D0437E9B0712D4EFF3108272B6D5
:1048E00018234B430749C9180123897D49B28B40DE
:1048F000C1699943C16100D14176002A00D162B6F5
:104900007047C04630EF0000437E002B05D09A0769
:1049100004D5837E002B00D062B67047DB07FCD540
:10492000C369024A9BB2D360F7E7C0460018004053
:10493000F7B508AC277809AC26780AAC25780D4C79
:104940000193083404600123002443750461047555
:104950000476A14205D1084B084A3721084807F0E0
:104960003FF86B461B794772C6720573416002724D
:104970008372FEBD48EE0000D2ED000084EE000020
:10498000E3ED0000037E002B04D143768376C36100
:1049900001330376704700007FB5036902AE04005F
:1049A0000D00029172608B4203D1828AB3889A42D1
:1049B00026D0200006223100103007F097F86068FA
:1049C00001F095F97379E17A013B581E8341227B0E
:1049D00000936068002301F027FB33790021013B3D
:1049E000DBB2022B01D8074AD15C074B2A009D425B
:1049F00000D91A00606801F04BF9606801F06DF9A8
:104A00007FBDC046CFED0000001BB70070B5182673
:104A10000400FFF7B7FF33000821207A0D4D434310
:104A2000EB18595604F05CF833000821A07A434390
:104A3000EB18595604F054F80821607A4643AD1932
:104A4000695604F04DF8044B200006CBFFF7A4FF95
:104A500070BDC04630EF0000DC03002007B5437E88
:104A600000910192002B07D09A070AD5EFF310832B
:104A70005A425341837672B60099019AFFF78CFF30
:104A800007BDDB07F8D5C369014A9BB29360F3E722
:104A9000001800400E490F4B10B501220B60002397
:104AA0004A710B710C490D48083101600C4942757F
:104AB00041600C49C2720181182103618172037542
:104AC000094A0A490376037304F0B8F810BDC046DA
:104AD000DC03002000093D0048EE0000BC0300207C
:104AE000D80A00201617000000000020FD2000005A
:104AF0000020704710B503689C6B0123A04710BDD0
:104B00008C2300229B00C154103BC3185A609A604A
:104B1000DA6001238375704710B5036801211B6BB0
:104B2000984710BDF8B505000E0017000024BC42E0
:104B300008D02B68315D1B6828009847002801D0F9
:104B40000134F4E72000F8BDFC30406A704770473C
:104B50008E239B00C15070478D239B00C15070472E
:104B60000300FC335A6A002A03D01B6AC018007E77
:104B7000704701204042FBE770B5060018250C493C
:104B8000006901F09BFA306901F0D9F82B00082187
:104B9000307D084C4343E318595603F0A1FF082128
:104BA000707D45436419615603F09AFF70BDC0469D
:104BB000A086010030EF000070B504000D00006910
:104BC00001F0D2F82900206901F078FA206901F09B
:104BD000B6F870BD10B5006901F0C6F810BD000050
:104BE000F7B50193FA238026002504009B0083601B
:104BF000134B760008330F004560290000920360D4
:104C00003200183006F08EFF23002000FC332530E0
:104C1000DD6132001D6229005D62FF3006F082FF17
:104C200088239B00E3185D609D60DD606B461B7808
:104C3000276123756B461B79A57520006375FEBD42
:104C4000E0EE000070B506001825006901F011FAC9
:104C5000306901F074F82B000821307D064C434385
:104C6000E318595603F03CFF0821707D4543641951
:104C7000615603F035FF70BD30EF000010B5002223
:104C8000FFF7E0FF10BD0300802210B5FC33DC68A5
:104C90005200944208D05A6881545A680132D2B204
:104CA0005A60DA680132DA6010BDF7B50400171EE9
:104CB000019302D100252800FEBD03000022FC3331
:104CC000DA611A625A620069013201F07FF8061E49
:104CD000F0D0230020691833009301F00AF9010095
:104CE0000098FFF7D0FF01252069BD4214D001F0E4
:104CF000DEF800280FD0206901F048F80221206971
:104D000001F04EF8206901F0F4F801000098FFF777
:104D1000BAFF0135E8E70600206901F02FF8019B92
:104D2000002B06D0002E06D00321206901F038F8B0
:104D3000C1E7002EBFD1013DBDE7002310B5827D44
:104D40009A420CD0882292008218D46880225200A5
:104D5000944204D02530FF30FFF795FF012318005F
:104D600010BD0300FC33DA68002A09D09A68805C21
:104D70009A680132D2B29A60DA68013ADA60704712
:104D800001204042FBE700228C2370B59B00827516
:104D900004000E00C15C006901F018F8002806D17B
:104DA0000321206900F0FCFF0225280070BD882344
:104DB0009B00E318DD68002D11D020002530FF3066
:104DC0002569FFF7CEFFC1B2280001F041F80028A5
:104DD000EDD10321206900F0E3FF0325E5E7002E74
:104DE000E3D00321206900F0DBFFDEE710B51830C7
:104DF000FFF7B7FF10BD70B50400006901F04EF871
:104E0000002815D0206901F060F8002811D0206931
:104E100000F0BCFF0321206900F0C2FF8E239B003D
:104E2000E558002D35D10023FC34E3612362636231
:104E300070BD206901F053F8002809D0206901F005
:104E400049F8002804D0206901F04EF80028DED08F
:104E5000206901F044F8002821D1206901F030F8E0
:104E60000028E5D0206901F03FF8002833D08823DE
:104E70009B00E318DB68FF21002B05D020002530C4
:104E8000FF30FFF76EFFC1B2206900F0F9FFA07597
:104E9000CEE7236820001B699847A847C3E720692D
:104EA00000F074FF2069032100F07AFF206901F00F
:104EB0001BF80028BCD0882300229B00E3185A600E
:104EC0009A60DA600123A3758D239B00E358934217
:104ED000AED09847ACE72300FC335A6A80232069A0
:104EE0005B009A4206D100F049FF0321206900F0DF
:104EF00057FF9DE700F0FDFF010020001830FFF78D
:104F0000C2FE206900F042FFEFE7000010B5024842
:104F1000FFF771FF10BDC046E403002010B5152354
:104F2000142202490248FFF75BFE10BDD00A0020A0
:104F3000E4030020114B12495A880A405A805A78DB
:104F4000D209FCD10F4A5A805A78D209FCD10E4AB4
:104F50005A605A7852B2002AFBDB802259689203C9
:104F60000A435A605A7852B2002AFBDBC023074A30
:104F70009B0051680B4353607047C046000C0040D3
:104F8000FFBFFFFF0546000006030100004000418F
:104F900070B5124801F04AFA114C002819D02000CF
:104FA00001F0F4FB002002220E4B0F4D19689143D3
:104FB000196004212E6931432961BFF34F8F30BF3F
:104FC00019680A431A60002802D0200001F0E8FBAB
:104FD00070BD200001F022FC0120E4E7E80A002077
:104FE000440B002010E000E000ED00E010B5FFF7FA
:104FF000CFFF10BDF8B50C00050016001F0000F033
:105000005AFDA0420AD2FF2C07D10021280000F04F
:105010009BF83100280000F045F8F8BD182216254D
:1050200062430A4B9B185D576B1CF6D0102DF4D0D1
:105030003A003100E0B202F0ADFCFFF77BFF012344
:10504000AB40034A51690B435361E6E730EF000080
:1050500000180040042310B5034A117E0B43137659
:10506000024B5B68984710BD0040004220060020BC
:1050700010B5024800F004F810BDC046200600201C
:105080000023037070470000044B10B51B68002B11
:1050900000D098470122024B1A7210BD280600204A
:1050A00000140040014B19607047C04628060020DC
:1050B000094B0A4A9A605A7852B2002AFBDB084A26
:1050C0005A605A7852B2002AFBDB064A5A805A7854
:1050D000D209FCD17047C046000C00400204000019
:1050E00002051100044200000221044B1A888A4381
:1050F0001A809A7AD209FCD17047C0460014004049
:105100000222044B19880A431A809A7AD209FCD1E8
:105110007047C046001400400122044B19880A431E
:105120001A809A7AD209FCD17047C0460014004018
:105130000121044B1A888A431A809A7AD209FCD139
:105140007047C046001400402023F7B500262A4AC5
:105150000F00916905000B439361284B284A294CA5
:105160009A82B7420BD1284B3E001A7870231A421C
:1051700005D023881B0702D5012623690193280047
:10518000FFF796FF2800FFF7AFFF2800FFF7C4FFE7
:1051900063881E4A134063801D4B2380A37ADB097A
:1051A000FCD1C0211B4A08331360890053581B02ED
:1051B0001B0A53500123E27913430722E371237F33
:1051C00093432377A37ADB09FCD12800FFF798FFEC
:1051D0002800FFF7ADFF002F0BD1002E09D0019B57
:1051E000002B06D02361A37ADB09FCD101332B709D
:1051F000F7BD8423DB03F5E700040040000800400E
:10520000CE0600000014004038040040FFBFFFFF3E
:10521000080A000000E100E0F8B505000F001400E6
:105220001E00012B01D980231F432869297B0368B5
:10523000DB6A98472869390003681B689847286922
:10524000002103681B6B98472869F2B20368297B29
:10525000DB6B9847A619A64206D0286903685B69EC
:10526000984720700134F6E70020F8BDF8B5060035
:105270000F0014001D0001201E2B15D83069317B52
:1052800003686519DB6A98473069390003681B6851
:10529000984730690368A54204D021781B68984775
:1052A0000134F6E75B6B9847F8BD000070B5040069
:1052B0000069217B0368DB6A9847206903685B6BA0
:1052C00098470023984209D1054D2000290000F09D
:1052D00091FB2B78333B58424341DBB2180070BD41
:1052E0002C06002013B501AC210000F06FFB2078E4
:1052F000431E9841C0B216BD10B504002000FFF750
:10530000F1FF002803D1013003F02AF8F6E710BDC1
:1053100013B5040006220021684606F003FC694626
:10532000200000F060FB6B4600229A5E6B462285EF
:105330005B88207E63856B469B88A385032800D904
:10534000BFE0637EDBB203F081FC022B5B8B012BA1
:1053500009D0002B00D1B4E0022B13D00123237518
:105360006375A37513BD100000F012FAE0612A23E3
:10537000E05E00F00DFA20622C23E05E00F008FAF7
:105380006062EBE7100000F039FAE0612A23E05E8A
:1053900000F034FA20622C23E05E00F02FFAEFE7F1
:1053A000012B1FD0002B0FD0022BD7D1100000F003
:1053B00031FAE0612A23E05E00F02CFA20622C230F
:1053C000E05E00F027FADBE7100000F0A9F9E061E9
:1053D0002A23E05E00F0A4F920622C23E05E00F0B6
:1053E0009FF9CDE7100000F0DFF9E0612A23E05ECD
:1053F00000F0DAF920622C23E05E00F0D5F9BFE777
:10540000012B1FD0002B0FD0022BA7D1100000F0D2
:105410000DFAE0612A23E05E00F008FA20622C23F6
:10542000E05E00F003FAABE7100000F084F9E06101
:105430002A23E05E00F07FF920622C23E05E00F07A
:105440007AF99DE7100000F0BBF9E0612A23E05EE5
:1054500000F0B6F920622C23E05E00F0B1F98FE78E
:10546000012B20D0002B10D0022B00D076E71000AB
:1054700000F0E8F9E0612A23E05E00F0E3F9206241
:105480002C23E05E00F0DEF97AE7100000F060F90E
:10549000E0612A23E05E00F05BF920622C23E05EED
:1054A00000F056F96CE7100000F096F9E0612A234D
:1054B000E05E00F091F920622C23E05E00F08CF9B0
:1054C0005EE7100000F024F9E0612A23E05E00F0BE
:1054D0001FF920622C23E05E00F01AF950E710B5A6
:1054E000037D0400002B04D1FFF706FF2000FFF727
:1054F0000FFF0023E069237510BD10B5437D040044
:10550000002B04D1FFF7F8FE2000FFF701FF002376
:10551000206A637510BD10B5837D0400002B04D193
:10552000FFF7EAFE2000FFF7F3FE0023606AA37591
:1055300010BD37B50023040001AD29002B8000F019
:105540009DF9637E012B0CD0002B04D0022B0DD0D3
:105550000123E37537BD0023E85E00F007F92063FF
:10556000F6E70023E85E00F045F9F8E70023E85E7F
:1055700000F076F9F3E710B5C37D0400002B04D1E9
:10558000FFF7BAFE2000FFF7D4FF0023206BE3757E
:1055900010BD10B5092900D9032100F0CDF910BDC7
:1055A00010B5032900D90021017600F0DDF910BD06
:1055B00010B5032100F069F910BD10B5022900D91A
:1055C0000021417600F079F910BD000070B50400AB
:1055D0000F4B026103600F4B01734360A060FFF744
:1055E00065FE051E12D00121200000F0D7F903212D
:1055F000200000F0A1F900212000FFF7D1FF2000DA
:10560000FFF7D6FF00212000FFF7D7FF280070BD6D
:105610006D5200001952000010B500F000FA10BDE4
:1056200010B500F014FA10BD73B501AC0E002100E6
:10563000050000F039FA22780223012E06D19A43A0
:1056400022702800210000F028FA73BD1343237054
:10565000F7E773B501AC0E002100050000F016FA63
:1056600023784022002E06D0134328002100237007
:1056700000F005FA73BD9343F7E713B501AC2100C1
:1056800000F0C6F920784006C00F16BD73B501AC16
:105690000E00012322002421050000F02FF800282D
:1056A0000BD123780822002E08D013432370220048
:1056B00001232421280000F026F873BD9343F5E769
:1056C00013B53F2401AB1A7822403D3C002911D08C
:1056D000224301241A701A78A243073400290BD000
:1056E0002243CB211A701A780A4019001A7000F070
:1056F00088F913BDA243ECE7A243F2E710B5446872
:105700008068A04710BD10B504688068A04710BD30
:1057100010B504F049F9F621890503F02FFE10BDFC
:1057200010B504F041F9F621890503F027FE011CAC
:1057300003F08AFC10BD10B504F036F9F621890596
:1057400003F01CFE8121C90503F018FE10BD000006
:1057500010B504F029F9F621890503F00FFE02497E
:1057600003F00CFE10BDC0460000404110B504F02F
:105770001BF9F221890503F001FEFA21890503F0E6
:10578000FDFD024903F060FC10BDC0460000C841A9
:1057900010B504F009F9F221890503F0EFFD81212C
:1057A000C90503F0EBFD10BD10B504F0FDF8F221C2
:1057B000890503F0E3FD8221C90503F0DFFD10BD7B
:1057C00010B504F0F1F8F221890503F0D7FD83212B
:1057D000C90503F0D3FD10BD10B504F0E5F8F221C2
:1057E000890503F0CBFD024903F0C8FD10BDC0469A
:1057F0000000404210B5FFF7B9FF10BD10B504F02E
:10580000D3F8EE21890503F0B9FD8321C90503F022
:10581000B5FD10BD10B504F0C7F8EE21890503F001
:10582000ADFD8421C90503F0A9FD10BD10B504F03C
:10583000BBF8EE21890503F0A1FD8521C90503F020
:105840009DFD10BD10B504F0AFF8EE21890503F001
:1058500095FD024903F092FD10BDC0460000404393
:1058600010B504F0A1F8EE21890503F087FD024987
:1058700003F0EAFB10BDC0460000C84110B50A00A5
:1058800002230C21FFF73AFF10BD73B501AC0E00E7
:10589000012322001F210500FFF730FF00280BD154
:1058A0003F232178B6011940314321703E3B22004D
:1058B0001F212800FFF727FF76BD73B501230E00D7
:1058C0006A4620210500FFF719FF002821D101AC0D
:1058D0000123220023212800FFF710FF002818D100
:1058E000002E17D16B461A78082369469A430A702E
:1058F00022781343237001236A4620212800FFF7F2
:1059000002FF002805D10123220023212800FFF7F0
:10591000FAFE76BD012E08D16B4608221B78934310
:1059200069460B7023789343E4E7022EE3D16B467C
:1059300008221B781343F3E773B501AC0E00012373
:10594000220020210500FFF7D9FE00280BD10F23EC
:10595000217836011940314321700E3B220020216D
:105960002800FFF7D0FE76BD73B501AC0E00012311
:10597000220023210500FFF7C1FE00280DD10321DD
:1059800030230E40217836019943314321702F3B5B
:10599000220023212800FFF7B6FE76BD73B501ACC7
:1059A0000E000123220023210500FFF7A7FE002897
:1059B0000BD17F232178F6011940314321707E3BC2
:1059C000220023212800FFF79EFE76BD37B50C008C
:1059D00001AD2A0001232721FFF790FE2B781B073A
:1059E000DB0F23703EBD10B50A0006232821FFF708
:1059F00085FE10BD10B50A0001230F21FFF77EFEC2
:105A000010BD10B50A0001233021FFF77CFE10BD48
:105A100010B50A0001233121FFF770FE10BD73B5E8
:105A200001AC0E000123220032210500FFF766FEC3
:105A300000280BD17F2321781E40994331432170E8
:105A40007E3B220032212800FFF75DFE76BD73B554
:105A500001AC0E000123220033210500FFF74EFEAA
:105A600000280BD17F2321781E40994331432170B8
:105A70007E3B220033212800FFF745FE76BD10B59E
:105A80000A0001232221FFF73EFE10BD10B50A00D7
:105A900001232221FFF732FE10BD10B50A000123B9
:105AA0002521FFF730FE10BD10B50A000123252186
:105AB000FFF724FE10BD2E207047000010B50248ED
:105AC00001F0ADFE10BDC0467408002010B50248BC
:105AD00001F0A5FE10BDC04630060020F7B5012438
:105AE0000326154F1549380000F042F814491548AF
:105AF00000F03EF81449154800F03AF814491548EA
:105B000000F036F81449154800F032F8144D1549E4
:105B1000280000F02DF8390000962300019400229F
:105B2000114801F0F5FD0096290001941E231F2263
:105B30000E4801F0EDFDF7BDB80A00200008004254
:105B4000000C0042C00A002000100042C80A0020D9
:105B500000140042D00A002000180042D80A002099
:105B6000E00A0020001C00427408002030060020DB
:105B700000230371016070479446F0B59E1E721EAB
:105B800096416246056892072F6836063A433243CB
:105B90002A60072505AC24780068A4012940214328
:105BA00042680024022B00D05C0311432143416072
:105BB000F0BD30B5C0250368AD031C6812052A404E
:105BC0002243C0240904A402214011431960036840
:105BD0005A6814435C6030BD0123026811680B43AE
:105BE000136003681A68D207FCD4DA69D207F9D4C3
:105BF00070470223026811680B4313600268D3697F
:105C00009B07FCD470470268137E9B0702D403797C
:105C1000002BF9D1002303717047002203685A83D7
:105C200070470368187E4007C00F70470368187EEE
:105C3000C0097047802302685B42117E0B431376D4
:105C400070470368588B8007C00F704702230268B3
:105C5000518B0B43538370470368187EC007C00FF6
:105C600070470368188DC0B2704703681A7ED20768
:105C7000FCD589B2198501230371180070470122F0
:105C800003689A757047012203681A75704700000F
:105C900070B5012604684B08334031402568090778
:105CA0005B070B432B43236004685100034802F059
:105CB000E1FF0138C0B2207370BDC046006CDC0249
:105CC0000123026811680B43136003681A68D20746
:105CD000FCD4DA69D207F9D470470223026811684C
:105CE0000B4313600268D3699B07FCD470470368B9
:105CF000DA699207FCD402211A688A431A60704755
:105D0000036818684000C00F70470268936A5B0A16
:105D10005B021943916203681A7E5207FCD5986AA8
:105D2000C0B270470123026811680B431360036817
:105D30001A68D207FCD4DA69D207F9D47047022373
:105D4000026811680B4313600368DA699207FCD498
:105D500030215A8B8A43110010220A435A83026869
:105D6000D3695B07FCD470470221026813688B4338
:105D700013600268D3699B07FCD4704780230268D4
:105D8000DB02116851680B43536070470368034995
:105D90001A685A680A405A607047C046FFFFFBFF06
:105DA000032230B5036811401C68074D5A68090486
:105DB0002A40E4061143640F5960052C03D10268A0
:105DC000D3695B07FCD430BDFFFFFCFF70B50568ED
:105DD00004006B8B9B069B0F022B0DD06B8B00205E
:105DE0009B069B0F032B32D06B8B9B0704D56B8BD1
:105DF0009B069B0F012B2AD16B6A49001143DB0ADA
:105E0000C9B2DB020B436B622368002A13D11A7EEE
:105E1000D207FCD55B8B9B069B0F022B04D0490855
:105E200000222000FFF7D2FF2368588B4007C30FE2
:105E3000012058400BE0187E8007C00FF4D11A7E75
:105E4000D207F8D5C022596892020A435A6070BD41
:105E50000368283319700268107EC007C30F508B87
:105E6000002B06D1C007C00F08D1538B9B07F3D579
:105E700070474007C30F01205840F9E71800F7E7C3
:105E8000036828331970036800201A7E520704D56E
:105E9000588B01234007C00F5840704703681868AB
:105EA000C006400F043843425841C0B270470368EF
:105EB000588B8006800F023843425841C0B2704769
:105EC0000368187E4007C00F70470368187EC0073C
:105ED000C00F70470368588BC006C00F7047036837
:105EE000187E8007C00F70470368588B0007C00FEB
:105EF000704703681A68D206520F052A05D11A7E28
:105F0000920702D41A7ED207F9D528331878C0B286
:105F1000704700000368214A30B593422FD0204AD1
:105F200093422FD01F4A93422FD01F4A93422FD023
:105F30001E4A93422FD01E4A93421FD10E2319228C
:105F40000121032599401B48C024016099082B407A
:105F5000AB40FC359D4089000918A4000859A843AE
:105F6000C0259D402B0003430B518023DB011A43C6
:105F7000114B5A805A7852B2002AFBDB30BD0923FC
:105F80001422DDE70A231522DAE70B231622D7E7CE
:105F90000C231722D4E70D231822D1E70008004272
:105FA000000C0042001000420014004200180042A1
:105FB000001C004200E100E0000C0040F8B50400C5
:105FC0000F0016001D00FFF7A5FF2000FFF704FEDD
:105FD0001C21BB000B4071072268090C0B431360A6
:105FE000842322689375012F1AD11021012E00D02D
:105FF00008390C4B69431868C00002F03BFE0722C9
:10600000216802408B895203DB04DB0C13438B8134
:10601000226803049089DB0C400B400318439081F5
:10602000F8BDC04644000020F7B50600019308AB58
:106030001F780D001400FFF743FE3000FFF76AFFE2
:10604000C022240592031440BA070C2717433C438F
:10605000C0270722BF022D0433683D4025431D6041
:10606000019B316813401A0080239B0213434B604D
:10607000F7BD70B504000D001600FFF74BFF2000C0
:10608000FFF750FE1C2221686D000B6893431A0035
:1060900010231343FF220B60236815405D62002E1E
:1060A00004D001232268516A0B43536207232268FC
:1060B00093752268D3695B07FCD470BDF8B5040002
:1060C0000F00FFF727FF2000FFF72CFE14222368A4
:1060D00079001A600C4B25681E68300002F0CAFD7A
:1060E0000A490400300002F0C5FD7D23FA2158431F
:1060F000C90002F0BFFDFF23241AE868053C1C40DC
:1061000098430443EC60F8BD4400002040420F0077
:106110000020704770B50F26CB1D013902003240B8
:10612000D5B22C0000093034092A00DD07341C7078
:10613000013B8B42F2D170BD10B50C000B4B1868BF
:10614000FFF7E8FF21000A4B08311868FFF7E2FF6C
:106150002100084B10311868FFF7DCFF2100064BC7
:1061600018311868FFF7D6FF202010BD0CA0800062
:1061700040A0800044A0800048A0800008B4024BEA
:106180009C46103808BC6047396100007047704772
:106190003F20704713B56B460268D97107335468C6
:1061A00019000122A04716BD70B50A260B7892B0DF
:1061B0006E44023305000B703C220021300005F0D4
:1061C000B1FC394801AC06903848242107900620DC
:1061D00020776846364AA1742281364A364BA2811E
:1061E000FD3AFF3A8018C177684623390630C177F7
:1061F00068460730C17702A8C1770720F2770326E7
:1062000008316944C87703A9CE7710212B366E4434
:106210003170092621851F3169440E700CA9053E95
:106220000E7033212380022369440B7006360DA9BA
:106230000E7022493536A1863B216E44307010A87D
:106240006274E27702703D3269446A440B701370E5
:1062500040210022E37023716371A37341336B44C7
:10626000218719705A702B7DC039A370A372637790
:106270000133DBB2A3776A7D0B200D006844154320
:10628000C5773120684403703A23501C6B44187062
:10629000412302320A436B441A702100422208480B
:1062A00000F02EFD12B070BD10010424020605247A
:1062B0000904000001020000080B000007050000AF
:1062C000440B002008B4024B9C46103808BC6047C1
:1062D000A961000070B5027D0B790C0000259A427F
:1062E0000BD10B784E78A12B09D1212E05D1072295
:1062F0001B491C4800F004FD0135280070BD212B0E
:10630000FBD1202E22D107221549164800F02EFC81
:106310009622134BD200196891421DD1DB79DB071D
:106320001AD4FA2002F03CFC00210E4800F0F0FDE7
:106330000125232EE1D1E378A2781B0213430A4AF8
:1063400000210848136000F0E3FDD6E7222EEFD1CC
:106350008A78034BDA71DBE702F02CFCE4E7C046F5
:1063600038000020440B00203400002008B4024B09
:106370009C46103808BC6047D562000010B5082262
:106380000021024805F0CEFB10BDC04638000020B9
:1063900010B5417D006A013100F012FB034B1B6810
:1063A00001335A1E9341181810BDC046400000200A
:1063B00010B5417D006A023100F018FB10BD10B528
:1063C000417D006A023100F0DFFA10BD70B50D00AA
:1063D000417D0400130002312A00006A00F0DAFB5C
:1063E000002801D10123636070BD000010B5054C89
:1063F00023685A1C04D103685B6998470300206036
:10640000180010BD40000020074A0300106810B5B6
:10641000411C03D001235B42136010BD597D186AF3
:10642000013100F067FBF8E74000002010B501F0F3
:1064300061FFF423FF330024984207D9044B0A205C
:10644000DC79631E9C41E4B201F08AFF200010BD9C
:10645000380000200020704770477047FA239B00E7
:1064600010B583600F4B0022C38203002833836181
:106470000D4B04004260C2611800503323610830A4
:10648000631D21622060DA778323A362813BE3628C
:106490008033236301F0A6FB2100103101F073FB70
:1064A000200010BD0302000080F30000022110B59F
:1064B000094B1A68437D5B01D318FF339C7A214353
:1064C0009972437D0133DBB25B01D3180122FF33A4
:1064D000997A0A439A7210BDFC0F002010B5024948
:1064E0000248FFF7BBFF10BD440B0020E80A002064
:1064F000704710B5040001F07DFF200010BD0000C2
:10650000F0B5822919D1C3B2294D5A01AA1891694F
:10651000284C80010C40C021890521439161264906
:10652000083340187021506128685B011A5C8A4367
:10653000110030220A431A54F0BD0029FCD1C026B4
:10654000C1B21B4C4B01E3189A681A4DB6052A409C
:1065500032439A60194A800182185A600A0007275C
:10656000246808325201115DB9430F0001213943FB
:1065700011559F6910493D4040182E439E61586156
:106580007020115D81430800102101431155996865
:106590000B48A2180840802149030143996099687B
:1065A000890B89039960402311790B431371C3E769
:1065B000FC0F0020FFFFFF8F700B0020300D00202C
:1065C000FF3F00F0EFF3108303600123436072B6D6
:1065D00070470368002B02D162B6BFF36F8F70471C
:1065E00073B5836D0400002B1BD10600A8363578E7
:1065F0006846FFF7E7FF019BEDB2013B02D3357818
:10660000EDB2FAE768460193FFF7E3FF002D01D1F1
:10661000002076BD2300A4331868A0342368C01A74
:10662000F7E76846FFF7CEFF22000025019BF43212
:10663000013B02D31578EDB2FAE768460193FFF704
:10664000C8FF002DE4D02300F0331868EC34E5E7F0
:1066500010B5436D4468DBB25A01A218916809482D
:1066600008330840802149030143916091685B0130
:10667000890B890391602268D318402219790A4353
:106680001A7110BDFF3F00F0F7B5436D4268DBB2F1
:10669000190004000831106849014118C979C90777
:1066A00011D55B01D21893689B049B0C0CD1200080
:1066B000FFF7CEFF63681A68636DDBB208335B01D6
:1066C000D3187F22DA71F7BDE16D002923D12100B3
:1066D000A4310B6023000125AC33E56568465360A7
:1066E000FFF770FF260020002100019BA836013B28
:1066F000F430F5315A1C33D0357002785F1ED2B2B7
:106700000A700A78002A04D120000193FFF7A0FF45
:10671000E8E73B00EEE72100F0310B600023E36582
:106720002300603353606846FFF74CFF01252600C5
:1067300020002100019BF436013BA830F5315A1CA2
:106740000ED0357002785F1ED2B20A700A78002A25
:1067500004D120000193FFF77BFFE8E73B00EEE761
:1067600068460193FFF735FFA4E737B56B46DC1D9C
:1067700000230D00237001F035FA210001F0C0F96B
:106780002B681818286020783EBD00000421034BB8
:106790001A6813788B4313707047C046FC0F0020B3
:1067A0000078002810D00121084B1B681A898A4301
:1067B0001A810822198B0A431A830422198B0A436F
:1067C0001A830022024B1A607047C046FC0F00205B
:1067D000F40F002010B50F4A93699B0B9B03936144
:1067E00013680222FF331A729879823A02439A712F
:1067F0001A7A9207FCD57F24074A2140937A080031
:10680000A3431900802301439172917A5B420B43A9
:10681000937210BDFC0F002000500041007800284A
:1068200005D0034B1A68012311890B43138170476C
:10683000FC0F002010B50C0001F0D4F9210001F08C
:1068400092F9002804D1034A93699B0B9B0393613F
:1068500010BDC046FC0F0020F8B50D00832A19D1E9
:10686000CBB23B4C5A01A21891693A48AD0108409D
:10687000C021890501439161374920686D18702155
:10688000083355615B011A5C8A43110040220A43B8
:106890001A54F8BD022A55D1304A8B009858002866
:1068A00002D003685B699847F82001F09FFD04005F
:1068B000274E2B4B4660036040220021083005F034
:1068C00031F922000023A032A3646565E3642365E7
:1068D000A365E3655360D3641372136013654C3290
:1068E00013725372FF222B001340590171188868EC
:1068F000184F08330740C02080053843886030684F
:1069000007265B01195CAD00B1430E000321314342
:1069100019542300616D60681140490141186033CA
:106920004B60616D63680A401B6852019B1801222D
:10693000FF33997A20000A439A72FFF789FE074BCA
:106940005C51A6E711002800FFF7DAFDA1E7C04679
:10695000FC0F0020FFFFFF8F700B0020480B002072
:10696000E8F3000070B505000124064BA200D258E0
:10697000002A06D0210028000134FFF76DFF0A2C01
:10698000F3D170BD1C0B00200B4BCAB20B48890120
:10699000C9185301C318596199690832890B8903D1
:1069A0009961036852019A180223D3715179823B8D
:1069B0000B4353717047C046700B0020FC0F002042
:1069C000084B8A00D05810B5002803D003689B6894
:1069D000984710BDC9B2044B490159188868800412
:1069E000800CF6E7480B0020FC0F002010B50C00CF
:1069F000FFF7E6FF00280CD0064BE4B21B68083412
:106A000064011C19802362795B4213436371022382
:106A1000E37110BDFC0F0020F0B51C00304B85B0B9
:106A20001B6807000D000292002B55D02D4E3178C7
:106A3000C9B2002902D1192002F00EF86423337084
:106A4000294BAA00D058002808D0036822005B68B0
:106A5000029998470400200005B0F0BD29003800D5
:106A6000FFF7AEFF844204D929003800FFF7A8FFE2
:106A700004000121EBB21D4E03935B010193F21858
:106A800093689B0B9B039360019A336802989B1851
:106A9000FF335A7A0A435A72154BA901C9182200CA
:106AA00005F024F8002CD6D029003800FFF788FF25
:106AB0000028D0D14021039B326808335B01D318F2
:106AC0001879014319710121D971019BD318FF3342
:106AD0009A7A0A439A72BEE701246442BBE7C04631
:106AE000F40F0020640B0020480B0020FC0F002056
:106AF000300D002013B56B46DC1D22000123FFF78B
:106B00008BFF012801D1207816BD01204042FBE710
:106B100070B5CBB2124A13485C0189018918021979
:106B200051609168104D08330D408021490329437D
:106B3000402591609168890B8903916001685A0131
:106B40008A1816793543157195796D06FCD55B0168
:106B5000C918CB79DB07FCD500198068C0B270BDBD
:106B6000300D0020FC0F0020FF3F00F070B50D003D
:106B700000211400FFF7CCFFA04200D92000002321
:106B80000349A34203D0CA5CEA540133F9E770BD5C
:106B9000300D0020F0B51E003F4B85B01B680F0084
:106BA0000192002B3FD08023DB019E423BD83B4C1F
:106BB0002178C9B2002902D11A2001F04DFF6423C7
:106BC00000252370364BBA01D3180293002E2CD027
:106BD000344B1B680393FF233B401C000093083495
:106BE000039B64011C19A379DB0921D02E4B2F498B
:106BF000186802F03FF82E4B1721584302F03AF87C
:106C00002C4BE279920713D4DA5D002A01D10138C6
:106C1000F7D20122DA55009B5A01224B9B189A6940
:106C2000920B92039A6101256D42280005B0F0BDD8
:106C30000022204B3400DA553F2E09D9009B402416
:106C40005A01184B9B188022996912060A439A61CF
:106C500022000199029804F049FF009BA1045A0107
:106C6000104B890C9B18029A2D195A619A69361B90
:106C7000920B92030A439A61009B039A08335B01CB
:106C8000D3180222DA715979823A0A435A71019B68
:106C90001B1901939AE7C046F40F0020650B0020F2
:106CA000700B0020FC0F00204400002040420F0029
:106CB00070110100670B002070B50D001C000D4B1A
:106CC000AE01F61811003000220004F00FFFEDB203
:106CD00009496D014D196E61AB69084A20001340E6
:106CE000AB61AB69A2049B0B920C9B031343AB619A
:106CF00070BDC046700B0020FC0F0020FF3F00F06D
:106D0000F7B5104B01901B780F001500002B0CD12C
:106D10000D4B16001C78002C09D00C4E0C48348802
:106D20002018641904F0E2FE34802800FEBD002E15
:106D3000FBD03A19330000210198FFF7BDFF24185A
:106D4000361AF4E7F00E0020F10F0020F20F0020B9
:106D5000F10E0020F8B50F0016000024012A26D9F4
:106D6000100004F09DFE0500380005F06DFD0323C2
:106D700002220130400028706B7096420DD939789C
:106D800000290AD0531CDBB20137A9549E4203D01C
:106D90000232EC54D2B2F0E7320029000548FFF786
:106DA000AFFF441EA041C4B2280004F083FE2000BF
:106DB000F8BDC046440B0020F0B50024012685B084
:106DC000184B0F0069461E7005000094FFF7CDFCBC
:106DD000154B01A90B806A3BFF3BCB715A330B72F9
:106DE000009B8C7109334B800E4B4E7108711C70E7
:106DF0003A00092F0FD00D4F09223E700C4E28008B
:106E000000943480FFF77CFF69462800FFF7ADFC53
:106E1000328808493C702800FFF772FF012005B056
:106E2000F0BDC046F00E002009020000F10F002066
:106E3000F20F0020F10E002070B5CE7892B0050060
:106E40000C00022E0BD18B79C9792C480902194309
:106E5000FFF7B2FF411E8841C0B212B070BD00F012
:106E6000C1FE210000F060FE002803D0C117081AFF
:106E7000C00FF2E7012E0ED1E279A37912021A4374
:106E80001F49112A13D8D2B2002A10D02800FFF7C8
:106E900037FF0120E1E7032EDFD1A378002B08D1D3
:106EA000E279A37912021A431649032AEBD90A7828
:106EB000ECE7022B08D1E279A379120212491A43B6
:106EC0002800FFF747FFC8E7012B05D1E279A37936
:106ED00012021A430D49F3E7032BBED141220100F0
:106EE00001A804F01FFE00F07DFE01A900F02CFEB9
:106EF000E279A37912021A4301A9E1E7440B0020C9
:106F000022F4000012F4000004F4000016F4000063
:106F1000CBB204495B01C9188B699B0B9B038B6146
:106F20007047C046FC0F002037B5050048780C00BC
:106F30000B2810D801F08AFE061B0F2B0F4045616D
:106F4000494C5A5D097801AA002906D10223118013
:106F50002800FFF7B1FE01203EBD00231380284B1F
:106F60001B78012B00D1137002230021F0E78A78EF
:106F70000023012A03D101AA1380224BF0E7204A03
:106F80001370214A93699B0B9B039361E3E78C7811
:106F9000012C06D100211B4B01AA1C70117023008B
:106FA000D6E70120002CD7D1154B174A18709369EA
:106FB0009B0B9B039361CFE789782800FFF70AFCBE
:106FC000C9E72800FFF738FFC6E701230F4ACCE7DF
:106FD0000B780020DB06BFD12800FFF7C3FCA278A6
:106FE0000A4B0B481A60FFF761FACAE70123094A06
:106FF000BBE78A78074B1A60C3E70020ACE7C046BE
:10700000660B00206E0B0020FC0F0020F40F002008
:10701000E80A0020F80F00204A4BF7B51E7805005B
:10702000002E00D07EE0484C23689A8B12070DD5C5
:10703000082231009A833000FFF762FA1022236899
:10704000FF33997A0A439A72404B1E6023689A8BE9
:1070500052071FD504229A833D4A1378002B0AD089
:107060001378013BDBB213701378002B03D101219D
:107070001A2001F0F1FC374A1378002B0AD013785C
:10708000013BDBB213701378002B03D101211920CF
:1070900001F0E2FC2368FF331A7A920603D520221E
:1070A000597A0A435A721A7AD20623D569460800D9
:1070B000294AC0CAC0C0A268920B9203A2604022B3
:1070C000587902435A7160230A7828001A422AD15B
:1070D000FFF72AFF2368FF33002827D08022997901
:1070E00052420A439A711A7A520603D54022597ABB
:1070F0000A435A727F2601252368FF331E722F0030
:10710000236808377F01DB19DB79002B07D0134B8D
:10711000AA00D05800280DD003681B689847013595
:10712000082DECD1F7BDFFF785FBD3E720210C4AF2
:107130009171D8E729000B48FFF78FF92368DF1911
:10714000FE71ECE7F10F0020FC0F0020F40F00208F
:10715000650B0020640B0020300D0020480B002040
:10716000FF500041E80A002010B50248FFF754FF25
:1071700010BDC046440B002080235B000380002329
:10718000436007330372704783000148C01870479B
:107190001C0B0020836C402B09D03F22036CC15490
:1071A000036C013313400364836C013383647047C1
:1071B000F7B505006846FFF705FA00264022019B57
:1071C000013B02D32E6D961BFAE768460193FFF749
:1071D00000FAAB6D6846002B4FD1FFF7F3F9290099
:1071E000019BA831013B5A1C0CD00C785A1EE4B20A
:1071F000002C05D168460193FFF7EBF92000FEBD96
:107200001300F0E7684601930024FFF7E2F92A0033
:107210002900A0321368A431B4420ED00868984205
:107220000BD92800591CEB1811606033197808300D
:10723000C9B2FFF7AFFF0134E9E709689942DDD130
:10724000002313600133AB656846FFF7BBF92F00DD
:107250002A000021019BA837013BF532581CC9D0F8
:10726000397010785E1E002805D011702800019337
:10727000FFF7EEF9EBE73300F0E7FFF7A3F929009A
:10728000019BF431013B5A1C06D00C785A1EE4B223
:10729000002CAFD01300F6E7684601930024FFF7F7
:1072A00098F92A002900EC321368F031B44202D078
:1072B000086898421DD8096899429FD10023684602
:1072C0001360AB65FFF77EF92F002A000021019BB8
:1072D000F437013BF532581C00D18BE73970107838
:1072E0005E1E002811D0117028000193FFF7B0F93D
:1072F000EAE72800591CEB181160AC331978083004
:10730000C9B2FFF747FF0134CBE73300E3E710B51D
:107310000400FFF74DFF206D10BD10B50400FFF70E
:1073200047FF236D002B03D0E36CE418207A10BDD7
:1073300001204042FBE7F7B517000E000400FFF7FD
:1073400037FF6846FFF73EF93F2200259446019B30
:10735000013B5A1C19D0BD4215D2226D002A12D011
:107360000121226D4942002A0AD06046E26CA2182F
:10737000117AE26C01320240E264226D013A226528
:1073800071550135E7E7013BE3E768460193FFF7F5
:1073900020F92800FEBD0000014B024A1A60704728
:1073A000FC0F002000500041F7B50024514B012193
:1073B00005001A201C7001F003FB01211A2001F0C6
:1073C0004BFB4D4B012119201C7001F0F9FA0121F2
:1073D000192001F041FB2023484A0F20D1690B43BB
:1073E000D361012246490B7813430B70454B197842
:1073F0008143197006211C782143197042490C7889
:1074000022430A701A7802401A70602219780A43DF
:107410001A703E4B3E4A5A805F78FF09FCD13D48C6
:1074200000F062FF01233C4C3C4E22683000117892
:107430000B43137080223900520004F073FB226862
:107440009378DB07FCD456621F26354B1B68590B1B
:10745000980C9B01314030405B0FB14200D10521B7
:107460001F2800D10238072B00D1043B314089018D
:10747000178D01912B4930400F40019939431185F7
:10748000118D0700B143080038431085118D180392
:10749000254B7F260B4003430C2013850823D1780E
:1074A00081430B430321D3702268D3788B43013986
:1074B0000B43D3702268137833401370042322687F
:1074C0001678334313702268C1241389A4008343C0
:1074D0001648138103591B021B0A035180230360C2
:1074E000137813481943012311702B700021FEF704
:1074F0004DFEF7BD650B0020640B0020000400402A
:10750000584400413C44004159440041000C0040B3
:107510000640000069710000FC0F002000100020F0
:10752000246080003FF8FFFFFF8FFFFF00E100E0D5
:10753000E80A00200120704710B50368014A1B6A61
:10754000984710BD13040000FC30006A7047872381
:107550009B00C018C36880204000C01A7047030019
:10756000FC331A6A002A03D0DB69C018007D70471B
:1075700001204042FBE710B504000069FEF72CFB38
:1075800022000023FC329361D361136287229200B0
:10759000A4186360A360E36010BD872310B59B004F
:1075A000C218D368002BFCD10069FEF72CFB10BD7C
:1075B000F02001403039484248417047F0231B0118
:1075C0001940802306209B0099420AD00133FF33E3
:1075D0000130994205D0802302385B00994200D0E7
:1075E000002070470F2001400020012903D00239FC
:1075F000481E8141481C70478B23F0B5182685B082
:1076000002919B000400C05C330008214343324DCB
:107610001700EB18595601F063FA304B0821E05C73
:1076200033004343EB18595601F05AFA2C4BE25CF5
:107630000393022A09D11133E05CFF2805D0082109
:107640004643AE19715601F04BFA8C26B600A05D88
:10765000FF2819D0012101F0B3F91822A35D2149B7
:107660005A43AB56AD18DB0158188D218900605084
:107670001D4901225B188E218900635069688A4088
:107680008F21890062501A600122029B110020693B
:10769000FEF794FC39002000FFF790FF3900050049
:1076A0002000FFF79FFF390006002000FFF780FF52
:1076B00033000090290020690122FEF75DFA0B4B90
:1076C0002069E25C039BE15CFEF773FA2069FEF738
:1076D00090FA05B0F0BDC04630EF00002D0200006A
:1076E0002F02000018440041144400412E02000003
:1076F000802210B504005200002104F013FA230088
:107700000022FC335A6020009A60DA6010BD00004D
:10771000F7B51D0008AB1B780400009309AB1B787C
:107720001600019300234360FA239B008360114BF2
:107730000F00083303601430FFF7DAFF2000213018
:10774000FF30FFF7D5FF8B236A469B002761E65485
:10775000094B1278E554094B2000E2546A46084B65
:107760001279E2548C22313BFF3B9200A354103239
:10777000A354FEBD34F400002D0200002E020000D0
:107780002F020000F7B5EFF310830093012301935C
:1077900072B680260200FF25019BFC327600013B79
:1077A0005C1C0FD0D4685F1EB44209D054680155E8
:1077B000546801342C405460D4680134D460EEE73E
:1077C0003B00EDE768460193FEF703FFF7BD13B5F5
:1077D000EFF3108300930123019372B6019B5A1EAD
:1077E0000192002B15D00300FC33DA68002A0DD07B
:1077F0009A68845C9A680132D2B29A60DA68013A77
:10780000DA606846FEF7E5FE200016BD01246442FA
:10781000F7E701246846FEF7DCFE6442F4E710B5A2
:1078200004000069FEF70DFA002805D02069FEF774
:1078300018FA2069FEF70AFA2069FEF7F2F9002823
:107840001BD02069FEF70DFA010020001430FFF76D
:1078500099FF8C239B00E35CFF2B0ED02300FC33AD
:107860001A6A80235B009B1A092B06DC8D238F226A
:107870009B009200E358A2581A602069FEF7ECF9C9
:1078800000280ED087239B00E318DB68002B14D060
:1078900020002130FF30FFF79AFFC1B22069FEF7C8
:1078A000E4F92069FEF7C2F9002805D02069FEF747
:1078B000C1F92069FEF7B1F910BD2069FEF7E3F9BF
:1078C000EFE70000F8B5040000690D00FEF7C4F909
:1078D00087239B00E618002802D0F368002B34D0E1
:1078E00001278022F3685200934223D1EFF31083E3
:1078F0003B4210D1174B5B68DB05DB0DF1D0103B31
:107900005BB2002B10DAF13A1340083B9B08124A95
:107910009B009B181B682069FEF79EF90028E0D0A9
:107920002000FFF77CFFDCE79B08C0330B4A9B007D
:107930009B58F0E720002130FF302900FFF722FF9D
:107940002069FEF79CF90120F8BD29002069FEF7A7
:107950008CF9F8E700ED00E01CED00E000E100E04C
:1079600010B504001430FFF732FF8C239B00E35C5A
:10797000FF2B0ED02300FC331A6A80235B009B1A76
:107980000A2B06DD8E238F229B009200E358A2581B
:107990001A6010BDF7B501921822162442433F4BDE
:1079A00007009B181C570091631C6ED0102C6CD0E4
:1079B0003B4B3C4E1D68002D27D1290044223A48FC
:1079C00004F0B0F829004422384804F0ABF8102243
:1079D000374B38491D60CA67C021C120364B49006A
:1079E0005A5080001958FF35A94319501A60334B7B
:1079F000334A5A8002233278134333707378DB0999
:107A0000012BFBD00122264B1A600125A54073698A
:107A100000212B437361380001F062F8009B002BBA
:107A200031D00027224B20499C461B68BA00BB423C
:107A30001DD16046013303608D501C4B0099995055
:107A4000072C19DD0123083CA4000721A140154A99
:107A50009B009B189A698A439A61019A042A12D85A
:107A60001000996901F0F2F80B12141618008858EA
:107A7000A842E1D00137D9E7A4000023E5E70522B9
:107A8000A2400A439A61ADB2F560F7BD0422F7E760
:107A90000322F5E70222F3E70122F1E730EF0000CD
:107AA000881100200018004044110020001100201F
:107AB0008C11002004E100E000E100E0000C004037
:107AC00005400000F8B50024094B1B68A34200D80C
:107AD000F8BD084E084FA5003369EA591A4204D090
